{
  "_format": "hh-sol-artifact-1",
  "contractName": "Crowdfunding",
  "sourceName": "contracts/Crowdfunding.sol",
  "abi": [
    {
      "inputs": [],
      "stateMutability": "nonpayable",
      "type": "constructor"
    },
    {
      "inputs": [],
      "name": "fundPetitions",
      "outputs": [],
      "stateMutability": "payable",
      "type": "function"
    },
    {
      "inputs": [
        {
          "internalType": "address",
          "name": "",
          "type": "address"
        }
      ],
      "name": "funders",
      "outputs": [
        {
          "internalType": "uint256",
          "name": "",
          "type": "uint256"
        }
      ],
      "stateMutability": "view",
      "type": "function"
    },
    {
      "inputs": [],
      "name": "manager",
      "outputs": [
        {
          "internalType": "address payable",
          "name": "",
          "type": "address"
        }
      ],
      "stateMutability": "view",
      "type": "function"
    },
    {
      "inputs": [
        {
          "internalType": "uint256",
          "name": "index",
          "type": "uint256"
        }
      ],
      "name": "payRecipient",
      "outputs": [
        {
          "internalType": "string",
          "name": "result",
          "type": "string"
        }
      ],
      "stateMutability": "payable",
      "type": "function"
    },
    {
      "inputs": [
        {
          "internalType": "uint256",
          "name": "",
          "type": "uint256"
        }
      ],
      "name": "petition",
      "outputs": [
        {
          "internalType": "string",
          "name": "name",
          "type": "string"
        },
        {
          "internalType": "uint256",
          "name": "amountNeeded",
          "type": "uint256"
        },
        {
          "internalType": "address payable",
          "name": "recipient",
          "type": "address"
        },
        {
          "internalType": "uint256",
          "name": "favourCount",
          "type": "uint256"
        },
        {
          "internalType": "bool",
          "name": "isFullfilled",
          "type": "bool"
        }
      ],
      "stateMutability": "view",
      "type": "function"
    },
    {
      "inputs": [],
      "name": "raisedAmount",
      "outputs": [
        {
          "internalType": "uint256",
          "name": "",
          "type": "uint256"
        }
      ],
      "stateMutability": "view",
      "type": "function"
    },
    {
      "inputs": [],
      "name": "refund",
      "outputs": [],
      "stateMutability": "payable",
      "type": "function"
    },
    {
      "inputs": [
        {
          "internalType": "uint256",
          "name": "_totalFundNeed",
          "type": "uint256"
        },
        {
          "internalType": "uint256",
          "name": "_timeDeadline",
          "type": "uint256"
        }
      ],
      "name": "setFundTime",
      "outputs": [],
      "stateMutability": "nonpayable",
      "type": "function"
    },
    {
      "inputs": [
        {
          "internalType": "string",
          "name": "_name",
          "type": "string"
        },
        {
          "internalType": "uint256",
          "name": "_amountNeeded",
          "type": "uint256"
        },
        {
          "internalType": "address",
          "name": "_recipient",
          "type": "address"
        }
      ],
      "name": "setPetition",
      "outputs": [],
      "stateMutability": "nonpayable",
      "type": "function"
    },
    {
      "inputs": [],
      "name": "timeDeadline",
      "outputs": [
        {
          "internalType": "uint256",
          "name": "",
          "type": "uint256"
        }
      ],
      "stateMutability": "view",
      "type": "function"
    },
    {
      "inputs": [],
      "name": "totalFundNeed",
      "outputs": [
        {
          "internalType": "uint256",
          "name": "",
          "type": "uint256"
        }
      ],
      "stateMutability": "view",
      "type": "function"
    },
    {
      "inputs": [],
      "name": "totalPetitions",
      "outputs": [
        {
          "internalType": "uint256",
          "name": "",
          "type": "uint256"
        }
      ],
      "stateMutability": "view",
      "type": "function"
    },
    {
      "inputs": [
        {
          "internalType": "uint256",
          "name": "index",
          "type": "uint256"
        }
      ],
      "name": "votePetition",
      "outputs": [],
      "stateMutability": "nonpayable",
      "type": "function"
    }
  ],
  "bytecode": "0x608060405234801561001057600080fd5b5033600760006101000a81548173ffffffffffffffffffffffffffffffffffffffff021916908373ffffffffffffffffffffffffffffffffffffffff160217905550611a69806100616000396000f3fe6080604052600436106100c25760003560e01c80635de909fa1161007f57806394443e1b1161005957806394443e1b1461022c578063a5e0e9bb14610255578063c59ee1dc14610280578063d15217b4146102ab576100c2565b80635de909fa146101b657806362696e9f146101f75780637cda6f7014610201576100c2565b8063031b3677146100c757806317b1ed3714610104578063481c6a751461012d5780634840cafb1461015857806356b14c6614610181578063590e1ae3146101ac575b600080fd5b3480156100d357600080fd5b506100ee60048036038101906100e99190610f2d565b6102db565b6040516100fb9190610f73565b60405180910390f35b34801561011057600080fd5b5061012b60048036038101906101269190610fba565b6102f3565b005b34801561013957600080fd5b506101426103a0565b60405161014f919061101b565b60405180910390f35b34801561016457600080fd5b5061017f600480360381019061017a9190611036565b6103c6565b005b34801561018d57600080fd5b506101966105ac565b6040516101a39190610f73565b60405180910390f35b6101b46105b2565b005b3480156101c257600080fd5b506101dd60048036038101906101d89190611036565b61070f565b6040516101ee959493929190611117565b60405180910390f35b6101ff6107fa565b005b34801561020d57600080fd5b506102166109a5565b6040516102239190610f73565b60405180910390f35b34801561023857600080fd5b50610253600480360381019061024e91906112a6565b6109ab565b005b34801561026157600080fd5b5061026a610af2565b6040516102779190610f73565b60405180910390f35b34801561028c57600080fd5b50610295610af8565b6040516102a29190610f73565b60405180910390f35b6102c560048036038101906102c09190611036565b610afe565b6040516102d29190611315565b60405180910390f35b60036020528060005260406000206000915090505481565b3373ffffffffffffffffffffffffffffffffffffffff16600760009054906101000a900473ffffffffffffffffffffffffffffffffffffffff1673ffffffffffffffffffffffffffffffffffffffff1614610383576040517f08c379a000000000000000000000000000000000000000000000000000000000815260040161037a90611383565b60405180910390fd5b81600581905550804261039691906113d2565b6006819055505050565b600760009054906101000a900473ffffffffffffffffffffffffffffffffffffffff1681565b80806000541161040b576040517f08c379a000000000000000000000000000000000000000000000000000000000815260040161040290611474565b60405180910390fd5b6000600360003373ffffffffffffffffffffffffffffffffffffffff1673ffffffffffffffffffffffffffffffffffffffff168152602001908152602001600020541161048d576040517f08c379a0000000000000000000000000000000000000000000000000000000008152600401610484906114e0565b60405180910390fd5b60006002600084815260200190815260200160002090508060050160003373ffffffffffffffffffffffffffffffffffffffff1673ffffffffffffffffffffffffffffffffffffffff16815260200190815260200160002060009054906101000a900460ff1615610533576040517f08c379a000000000000000000000000000000000000000000000000000000000815260040161052a9061154c565b60405180910390fd5b60018160050160003373ffffffffffffffffffffffffffffffffffffffff1673ffffffffffffffffffffffffffffffffffffffff16815260200190815260200160002060006101000a81548160ff0219169083151502179055508060030160008154809291906105a29061156c565b9190505550505050565b60055481565b600654421180156105c65750600554600454105b610605576040517f08c379a00000000000000000000000000000000000000000000000000000000081526004016105fc90611601565b60405180910390fd5b6000600360003373ffffffffffffffffffffffffffffffffffffffff1673ffffffffffffffffffffffffffffffffffffffff1681526020019081526020016000205411610687576040517f08c379a000000000000000000000000000000000000000000000000000000000815260040161067e9061166d565b60405180910390fd5b3373ffffffffffffffffffffffffffffffffffffffff166108fc600360003373ffffffffffffffffffffffffffffffffffffffff1673ffffffffffffffffffffffffffffffffffffffff168152602001908152602001600020549081150290604051600060405180830381858888f1935050505015801561070c573d6000803e3d6000fd5b50565b6002602052806000526040600020600091509050806000018054610732906116bc565b80601f016020809104026020016040519081016040528092919081815260200182805461075e906116bc565b80156107ab5780601f10610780576101008083540402835291602001916107ab565b820191906000526020600020905b81548152906001019060200180831161078e57829003601f168201915b5050505050908060010154908060020160009054906101000a900473ffffffffffffffffffffffffffffffffffffffff16908060030154908060040160009054906101000a900460ff16905085565b600654421061083e576040517f08c379a00000000000000000000000000000000000000000000000000000000081526004016108359061173a565b60405180910390fd5b662386f26fc10000341015610888576040517f08c379a000000000000000000000000000000000000000000000000000000000815260040161087f906117cc565b60405180910390fd5b6000600360003373ffffffffffffffffffffffffffffffffffffffff1673ffffffffffffffffffffffffffffffffffffffff168152602001908152602001600020541415610934576001339080600181540180825580915050600190039060005260206000200160009091909190916101000a81548173ffffffffffffffffffffffffffffffffffffffff021916908373ffffffffffffffffffffffffffffffffffffffff1602179055505b34600360003373ffffffffffffffffffffffffffffffffffffffff1673ffffffffffffffffffffffffffffffffffffffff168152602001908152602001600020600082825461098391906113d2565b92505081905550346004600082825461099c91906113d2565b92505081905550565b60005481565b3373ffffffffffffffffffffffffffffffffffffffff16600760009054906101000a900473ffffffffffffffffffffffffffffffffffffffff1673ffffffffffffffffffffffffffffffffffffffff1614610a3b576040517f08c379a0000000000000000000000000000000000000000000000000000000008152600401610a3290611383565b60405180910390fd5b60006002600080548152602001908152602001600020905083816000019080519060200190610a6b929190610e18565b50828160010181905550818160020160006101000a81548173ffffffffffffffffffffffffffffffffffffffff021916908373ffffffffffffffffffffffffffffffffffffffff16021790555060008160040160006101000a81548160ff021916908315150217905550600080815480929190610ae79061156c565b919050555050505050565b60065481565b60045481565b6060818060005411610b45576040517f08c379a0000000000000000000000000000000000000000000000000000000008152600401610b3c90611474565b60405180910390fd5b3373ffffffffffffffffffffffffffffffffffffffff16600760009054906101000a900473ffffffffffffffffffffffffffffffffffffffff1673ffffffffffffffffffffffffffffffffffffffff1614610bd5576040517f08c379a0000000000000000000000000000000000000000000000000000000008152600401610bcc90611383565b60405180910390fd5b60006002600085815260200190815260200160002090508060010154471015610c33576040517f08c379a0000000000000000000000000000000000000000000000000000000008152600401610c2a90611838565b60405180910390fd5b6002600180549050610c459190611887565b816003015411610c8a576040517f08c379a0000000000000000000000000000000000000000000000000000000008152600401610c8190611904565b60405180910390fd5b8060040160009054906101000a900460ff1615610cdc576040517f08c379a0000000000000000000000000000000000000000000000000000000008152600401610cd390611970565b60405180910390fd5b60008160020160009054906101000a900473ffffffffffffffffffffffffffffffffffffffff1673ffffffffffffffffffffffffffffffffffffffff168260010154600036604051610d2f9291906119c0565b60006040518083038185875af1925050503d8060008114610d6c576040519150601f19603f3d011682016040523d82523d6000602084013e610d71565b606091505b505090508015610df457816001015460046000828254610d9191906119d9565b9250508190555060018260040160006101000a81548160ff0219169083151502179055506040518060400160405280600d81526020017f596f75206861766520506169640000000000000000000000000000000000000081525093505050610e12565b604051806060016040528060268152602001611a0e60269139935050505b50919050565b828054610e24906116bc565b90600052602060002090601f016020900481019282610e465760008555610e8d565b82601f10610e5f57805160ff1916838001178555610e8d565b82800160010185558215610e8d579182015b82811115610e8c578251825591602001919060010190610e71565b5b509050610e9a9190610e9e565b5090565b5b80821115610eb7576000816000905550600101610e9f565b5090565b6000604051905090565b600080fd5b600080fd5b600073ffffffffffffffffffffffffffffffffffffffff82169050919050565b6000610efa82610ecf565b9050919050565b610f0a81610eef565b8114610f1557600080fd5b50565b600081359050610f2781610f01565b92915050565b600060208284031215610f4357610f42610ec5565b5b6000610f5184828501610f18565b91505092915050565b6000819050919050565b610f6d81610f5a565b82525050565b6000602082019050610f886000830184610f64565b92915050565b610f9781610f5a565b8114610fa257600080fd5b50565b600081359050610fb481610f8e565b92915050565b60008060408385031215610fd157610fd0610ec5565b5b6000610fdf85828601610fa5565b9250506020610ff085828601610fa5565b9150509250929050565b600061100582610ecf565b9050919050565b61101581610ffa565b82525050565b6000602082019050611030600083018461100c565b92915050565b60006020828403121561104c5761104b610ec5565b5b600061105a84828501610fa5565b91505092915050565b600081519050919050565b600082825260208201905092915050565b60005b8381101561109d578082015181840152602081019050611082565b838111156110ac576000848401525b50505050565b6000601f19601f8301169050919050565b60006110ce82611063565b6110d8818561106e565b93506110e881856020860161107f565b6110f1816110b2565b840191505092915050565b60008115159050919050565b611111816110fc565b82525050565b600060a082019050818103600083015261113181886110c3565b90506111406020830187610f64565b61114d604083018661100c565b61115a6060830185610f64565b6111676080830184611108565b9695505050505050565b600080fd5b600080fd5b7f4e487b7100000000000000000000000000000000000000000000000000000000600052604160045260246000fd5b6111b3826110b2565b810181811067ffffffffffffffff821117156111d2576111d161117b565b5b80604052505050565b60006111e5610ebb565b90506111f182826111aa565b919050565b600067ffffffffffffffff8211156112115761121061117b565b5b61121a826110b2565b9050602081019050919050565b82818337600083830152505050565b6000611249611244846111f6565b6111db565b90508281526020810184848401111561126557611264611176565b5b611270848285611227565b509392505050565b600082601f83011261128d5761128c611171565b5b813561129d848260208601611236565b91505092915050565b6000806000606084860312156112bf576112be610ec5565b5b600084013567ffffffffffffffff8111156112dd576112dc610eca565b5b6112e986828701611278565b93505060206112fa86828701610fa5565b925050604061130b86828701610f18565b9150509250925092565b6000602082019050818103600083015261132f81846110c3565b905092915050565b7f596f7520617265206e6f7420616e204d616e6167657200000000000000000000600082015250565b600061136d60168361106e565b915061137882611337565b602082019050919050565b6000602082019050818103600083015261139c81611360565b9050919050565b7f4e487b7100000000000000000000000000000000000000000000000000000000600052601160045260246000fd5b60006113dd82610f5a565b91506113e883610f5a565b9250827fffffffffffffffffffffffffffffffffffffffffffffffffffffffffffffffff0382111561141d5761141c6113a3565b5b828201905092915050565b7f446f6e27742068617665205065746974696f6e206f6620746869732049440000600082015250565b600061145e601e8361106e565b915061146982611428565b602082019050919050565b6000602082019050818103600083015261148d81611451565b9050919050565b7f596f7520617265206e6f7420612066756e646572000000000000000000000000600082015250565b60006114ca60148361106e565b91506114d582611494565b602082019050919050565b600060208201905081810360008301526114f9816114bd565b9050919050565b7f416c726561647920566f74656400000000000000000000000000000000000000600082015250565b6000611536600d8361106e565b915061154182611500565b602082019050919050565b6000602082019050818103600083015261156581611529565b9050919050565b600061157782610f5a565b91507fffffffffffffffffffffffffffffffffffffffffffffffffffffffffffffffff8214156115aa576115a96113a3565b5b600182019050919050565b7f446561646c696e6520686173206e6f74206265656e2050617373656400000000600082015250565b60006115eb601c8361106e565b91506115f6826115b5565b602082019050919050565b6000602082019050818103600083015261161a816115de565b9050919050565b7f596f7520617265206e6f7420612046756e646572000000000000000000000000600082015250565b600061165760148361106e565b915061166282611621565b602082019050919050565b600060208201905081810360008301526116868161164a565b9050919050565b7f4e487b7100000000000000000000000000000000000000000000000000000000600052602260045260246000fd5b600060028204905060018216806116d457607f821691505b602082108114156116e8576116e761168d565b5b50919050565b7f446561646c696e6520686173206265656e205061737365640000000000000000600082015250565b600061172460188361106e565b915061172f826116ee565b602082019050919050565b6000602082019050818103600083015261175381611717565b9050919050565b7f46756e64696e6720416d6f756e74204d7573742062652067726561746572207460008201527f68616e20302e3031206574686572000000000000000000000000000000000000602082015250565b60006117b6602e8361106e565b91506117c18261175a565b604082019050919050565b600060208201905081810360008301526117e5816117a9565b9050919050565b7f4e6f7420656e6f7567682046756e640000000000000000000000000000000000600082015250565b6000611822600f8361106e565b915061182d826117ec565b602082019050919050565b6000602082019050818103600083015261185181611815565b9050919050565b7f4e487b7100000000000000000000000000000000000000000000000000000000600052601260045260246000fd5b600061189282610f5a565b915061189d83610f5a565b9250826118ad576118ac611858565b5b828204905092915050565b7f536f7272792c52657175657374204e6f742046756c6c66696c6c656400000000600082015250565b60006118ee601c8361106e565b91506118f9826118b8565b602082019050919050565b6000602082019050818103600083015261191d816118e1565b9050919050565b7f416c726561647920506169640000000000000000000000000000000000000000600082015250565b600061195a600c8361106e565b915061196582611924565b602082019050919050565b600060208201905081810360008301526119898161194d565b9050919050565b600081905092915050565b60006119a78385611990565b93506119b4838584611227565b82840190509392505050565b60006119cd82848661199b565b91508190509392505050565b60006119e482610f5a565b91506119ef83610f5a565b925082821015611a0257611a016113a3565b5b82820390509291505056fe5472616e73616374696f6e204661696c65642074727920616674657220736f6d6574696d6573a26469706673582212202e45f1aa8809e66de8d7b3fdb27316d7dd308a742c1de4c07f050aa661ba349364736f6c63430008090033",
  "linkReferences": {},
  "deployedLinkReferences": {}
}